:060000000A128A110E280D
:10000800FE00030E83120313AD000A08AE000A12A5
:100018008A1119280A128A11112883120313B001B0
:10002800B10183010A128A11BF290C1F1C281D283F
:1000380095281F0CAC002C0C0F390C3A031D2528F1
:10004800262845280130A4000030A500FF30A6006E
:100058000030A7000330A8000030A9001430AA001F
:100068000030AB001E080A128A1119210A128A11DF
:1000780083120313240895001F08C33928389F00EA
:1000880094281F0CAC002C0C0F390A3A031D4D287C
:100098004E286D280130A4000030A500FF30A600CE
:1000A8000030A7000330A8000030A9001430AA00CF
:1000B8000030AB001E080A128A1119210A128A118F
:1000C8008312031324089B001F08C33920389F009C
:1000D80094281F0CAC002C0C0F39083A031D752806
:1000E800762894280030A400A500FF30A600003030
:1000F800A7000030A800A9005030AA000030AB00CB
:100108001E080A128A1119210A128A11831203136E
:100118002508B1002408B0001F08C33930389F00F3
:100128000C130B1D98289928A9280B11F63081006B
:1001380005143108F1003008F0000A128A11F22182
:100148000A128A118312031305102E088A002D0E35
:100158008300FE0E7E0E090083120313A101F71F10
:10016800B628B728BE28F609F709F60A0319F70AC8
:10017800A101A10AF91FC128C228CB28F809F90949
:10018800F80A0319F90A0130FA007A08A106A2014F
:10019800A301760877040319D228D3280A29A001D5
:1001A800A00AE12801300310F60DF70DFF3E031DEC
:1001B800D7280130FA007A08A007F71FE428E528B5
:1001C800D62801300310A20DA30DFF3E031DE6281B
:1001D80077087902031DF22876087802031CF528AF
:1001E800F628FD287608F8027708031CF903F902B7
:1001F800221401300310F70CF60CFF3E031DFE28F5
:100208000130A002031D09290A29E528210803193C
:100218000E290F291429A209A309A20A0319A30A5E
:100228002308F7002208F6000800FC0083120313D5
:1002380024082602F6002508031C250A2702F700D1
:100248007C08FB0024087B02F00025090318013E06
:10025800F10028082A02F2002908031C290A2B02A7
:10026800F3000A128A119A210A128A117108F900F8
:100278007008F8000A128A11B0200A128A11831233
:10028800031328087607A40029080318290A770702
:10029800A50008008316031307159B3092000C3045
:1002A800831203139700303097040B3095008C109D
:1002B8009214121412158316031387140C30831228
:1002C80003139D001D169D160B309B008C1C6D2979
:1002D8006E296A298C1083160313071187100800EA
:1002E80083160317880109140915091683160313C1
:1002F800061586140614051083120313860185015A
:100308008B170B178B120B11831603130C17831201
:1003180003130C13831603130F138F160F160F14E2
:10032800811281110115811401140800F401F501ED
:10033800701C9F29A029A6297208F4070318F50A3A
:100348007308F50701300310F20DF30DFF3E031D8E
:10035800A72901300310F10CF00CFF3E031DAE2954
:1003680070087104031DB929BA299C297508F10080
:100378007408F00008000A128A1174210A128A11FE
:100388000A128A11DB210A128A110A128A114E21D5
:100398000A128A11F6308312031381009F18D52997
:1003A800D629D2299F14D2290A128A110E2883121B
:1003B80003139F131F13831603139F121F129F13F8
:1003C800831203139F161F169F111F111F1403304A
:1003D80083120313AF00AF0BEF290800FD290A3081
:1003E800F200F20BF5290130F0020030031CF10392
:1003F800F10270087104031D022A032AF329080078
:08400000FF3FFF3FFF3FFF3FC0
:04400E00D420FF3F7C
:00000001FF
